:0C00000019C032C0FDCFFCCFFBCFFACFFF
:10000C00F9CFF8CFF7CFF6CFF5CFF4CFF3CFF2CFC0
:10001C00F1CFF0CFEFCFEECFEDCFECCFEBCFEACFF0
:10002C00E9CFE8CFE7CFE6CFF894EE27EFBBE5BFFB
:10003C008DE0A2E0BB27ED938A95E9F780E092E092
:10004C00A0E0B1E0ED930197E9F7E0E0EEBBEFEF54
:10005C00EDBFE2E0EEBFC0E8D1E006C0289B02C0D5
:10006C00289801C0289A1895E0E8E0936100E0E038
:10007C00E0936100E9E0E4B9E0E0E5B9E7B9E8B99B
:10008C00E8E0EAB9E0E0EBB9E1E0E4BDE5BDE0E0D1
:10009C00E6BDE7BDE8BDE1E0E0938000E0938100C0
:1000AC00E0E0E0938500E0938400E0938700E09328
:1000BC008600E0938900E0938800E0938B00E09346
:1000CC008A00E093B600E1E8E093B000E1E0E09351
:1000DC00B100E0E0E093B200E093B300E093B40031
:1000EC00E0936E00E0936F00E0937000E3E0E09328
:1000FC006900E1E0EDBBECBBE0E0E0936800E0936D
:10010C00C100E0E8E0BFE0E0E0937B00E0937F001B
:10011C00E0937A00ECBDE093BC007894FFCFFFCF66
:00000001FF
