:0400000019C0FECF56
:10000400FDCFFCCFFBCFFACFF9CFF8CFF7CFF6CFA8
:10001400F5CFF4CFF3CFF2CFF1CFF0CFEFCFEECFD8
:10002400EDCFECCFEBCFEACFE9CFE8CFE7CFE6CF08
:10003400F894EE27EFBBE5BF8DE0A2E0BB27ED937C
:100044008A95E9F780E092E0A0E0B1E0ED930197B2
:10005400E9F7E0E0EEBBEFEFEDBFE2E0EEBFC0E8B2
:10006400D1E000C0E0E8E0936100E0E0E0936100EB
:10007400EFEFE4B9E0E0E5B9EFE7E7B9E0E0E8B9CC
:10008400EFEFEAB9E0E0EBB9E4BDE5BDE6BDE7BDFD
:10009400E8BDE0938000E0938100E0938500E09365
:1000A4008400E0938700E0938600E0938900E09366
:1000B4008800E0938B00E0938A00E093B600E0931D
:1000C400B000E093B100E093B200E093B300E0939A
:1000D400B400E0936E00E0936F00E0937000E0934F
:1000E4006900EDBBE0936800E093C100E0E8E0BF85
:1000F400E0E0E0937B00E0937F00E0937A00ECBDC6
:10010400E093BC00EFEFE5B9E8B9EBB9FBCFFFCF63
:00000001FF
