:040000001EC0FECF51
:10000400FDCFFCCFFBCFFACF4AC0F8CFF7CFF6CF66
:10001400F5CF3FC0F3CFF2CFF1CFF0CFEFCFEECF9C
:10002400EDCFECCFEBCFEACFE9CFE8CFE7CFE6CF08
:1000340000000100040034000000F894EE27EFBB38
:10004400E5BF8DE0A2E0BB27ED938A95E9F780E058
:1000540092E0A0E0B1E0ED930197E9F7E6E3F0E088
:1000640085919591009761F0A591B59105901590B2
:10007400BF01F00105900D920197E1F7FB01F0CF6C
:10008400E0E0EEBBEFEFEDBFE2E0EEBFC0E7D2E0B1
:100094000CC0EA93EFB74394EFBFE9911895429BE4
:1000A40002C0429801C0429A1895E0E8E0936100CA
:1000B400E0E0E0936100E6E0E4B9E0E0E5B9E4E023
:1000C400E7B9E0E0E8B9EAB9EBB9E4BDE5BDE6BDFE
:1000D400E7BDE8BDE1EBE0938000E1E0E09381005F
:1000E400E0E0E0938500E0938400E0938700E093F0
:1000F4008600E0938900E4E6E0938800E0E0E09382
:100104008B00E6E9E0938A00E0E0E093B600E1EBDF
:10011400E093B000E1E0E093B100E0E0E093B200EE
:10012400E093B300E093B400E0936E00E2E0E09368
:100134006F00E0E0E0937000E0936900EDBBE093B2
:100144006800E093C100E0E8E0BFE0E0E0937B00FA
:10015400E0937F00E0937A00ECBDE093BC00E0E123
:10016400E0936000E0ECE09360007894FFCFFFCF71
:00000001FF
