:0400000043C1FECF2B
:10000400FDCFFCCFFBCFFACFF9CFF8CFF7CFF6CFA8
:10001400F5CFF4CFF3CFF2CFF1CFF0CF85C1EECF50
:10002400EDCFECCFEBCFEACFE9CFE8CFE7CFE6CF08
:100034000000DD0800E11100E51900E82100EC2AC8
:1000440000EF3200F13A00F44200F64A00F85200A0
:10005400FA5A00FC6200FD6900FE7100FE7800FFA0
:100064008000FF8700FF8E00FE9500FE9B00FDA22E
:1000740000FCA800FAAE00F8B400F6BA00F4C00020
:10008400F1C500EFCA00ECCF00E8D400E5D900E1E7
:10009400DD00DDE100D9E500D4E800CFEC00CAEFD3
:1000A40000C5F100C0F400BAF600B4F800AEFA00DE
:1000B400A8FC00A2FD009BFE0095FE008EFF0087B9
:1000C400FF007FFF0078FE0071FE0069FD0062FC06
:1000D400005AFA0052F8004AF60042F4003AF100DD
:1000E40032EF002AEC0021E80019E50011E10008D4
:1000F400DD0000E10800E51100E81900EC2100EF43
:100104002A00F13200F43A00F64200F84A00FA52AA
:1001140000FC5A00FD6200FE6900FE7100FF7800D9
:10012400FF7F00FF8700FE8E00FE9500FD9B00FC14
:10013400A200FAA800F8AE00F6B400F4BA00F1C0C8
:1001440000EFC500ECCA00E8CF00E5D400E1D90017
:10015400DDDD00D9E100D4E500CFE800CAEC00C53C
:10016400EF00C0F100BAF400B4F600AEF800A8FA4B
:1001740000A2FC009BFD0095FE008EFE0087FF00A0
:1001840080FF0078FF0071FE0069FE0062FD005AE6
:10019400FC0052FA004AF80042F6003AF40032F148
:1001A400002AEF0021EC0019E80011E50008E10045
:1001B40000DD0000E10800E51100E81900EC210071
:1001C400EF2A00F13200F43A00F64200F84A00FA4D
:1001D4005200FC5A00FD6200FE6900FE7100FF78C7
:1001E40000FF8000FF8700FE8E00FE9500FD9B004F
:1001F400FCA200FAA800F8AE00F6B400F4BA00F1CC
:10020400C000EFC500ECCA00E8CF00E5D400E1D996
:1002140000DDDD00D9E100D4E500CFE800CAEC0040
:10022400C5EF00C0F100BAF400B4F600AEF800A8BF
:10023400FA00A2FC009BFD0095FE008EFE0087FFE5
:100244000080FF0078FF0071FE0069FE0062FD007F
:100254005AFC0052FA004AF80042F6003AF400321E
:10026400F1002AEF0021EC0019E80011E50008E193
:100274000000000000000000000000000C0003006B
:1002840074020000F894EE27EFBBE5BF8DE0A2E016
:10029400BB27ED938A95E9F780E092E0A0E0B1E016
:1002A400ED930197E9F7E0E8F2E0859195910097E5
:1002B40061F0A591B59105901590BF01F0010590ED
:1002C4000D920197E1F7FB01F0CFE0E0EEBBEFEF19
:1002D400EDBFE2E0EEBFC0E8D1E04CC116D4DBD103
:1002E400E889F9896A897B8947D37F936F93FF9360
:1002F400EF93D6D1F6D340D3AF91BF918F919F9115
:1003040088D37F936F93FF93EF93C5D1E885F985E5
:100314006A857B8531D3AF91BF918F919F91BBD378
:10032400BFD125D3649608950A921A92FA926A93D9
:100334007A938A939A93AA93BA93EA93FA93EFB728
:10034400EA93A6E8B1E0ED91FD913196FE93EE9328
:10035400E0918401F0918501A0918601B09187011B
:10036400AE17BF07A4F0E0E0E0938601E0938701B5
:10037400A0918001B09181018091820190918301CB
:10038400DBD311F0442011F4D2D001C018D037BC13
:1003940068BC5092880080928A007092B300A09248
:1003A400B400E991EFBFF991E991B991A9919991BB
:1003B400899179916991F9901990099018952297EA
:1003C400C1D3E1E0F0E0BE0ECF1EE0ECF0E0EB15AF
:1003D400FC0511F4BB24CC24EB2DFC2DA3E0B0E0F0
:1003E40013D3EE83FF8361D1EC5CFF4F61D11E2FE9
:1003F4000D2C0E2829F46BD10E2F6DD13E2F04C085
:1004040066D13E2F68D10E2F1A93EDB7FEB7FA933B
:10041400EA932F93ADB7BEB75F9323D05F912F912B
:10042400322E652E0A93EDB7FEB7FA93EA932F9313
:10043400ADB7BEB75F9315D05F912F91522E852E25
:100444003A93EDB7FEB7FA93EA932F93ADB7BEB7DD
:100454005F9307D05F912F91722EA52E7AD32896A1
:100464000895BA93AA93AC81A33030F4AA81BB81D6
:10047400E0E0EC93EC8112C0AC81AD3F40F0AA8186
:10048400BB81EBEFEC93A881B981EFEF09C0EC815C
:10049400E250AA81BB81EC93EC81EE5FA881B98123
:1004A400EC9325960895BA93AA932497EC81FD8141
:1004B400309751F4E0E0E0938001E0938101E09310
:1004C4008201E093830131C0EC81FD81ACE7B0E0AF
:1004D400B8D2E0938401F0938501EC81FD815DD273
:1004E4000FD3E1E0F0E060E070E00AD3ECE3F0E089
:1004F40060E070E005D3EEE1F0E060E070E000D38E
:10050400A4E6B0E080E090E0E9DE70D1F4D2EED26F
:10051400E0E0F0E068EC72E4E5D1E0938001F09370
:100524008101609382017093830126960895D7D048
:10053400E0E0E0938800D8D0DCD00895AA93E88165
:10054400E064E0937C008BE18A95F1F7E0917A0016
:10055400E064E0937A00E0917A00E071E1F3E091E5
:100564007A00E061E0937A00E0917800F0917900FC
:100574002196089500E010E0E0E8E0936100E0E0F7
:10058400E0936100EFE0E4B9E0E0E5B9E7B9E8B988
:10059400E8E6EAB9E0E0EBB9E1EBE4BDE1E0E5BDB2
:1005A400E0E0E6BD9CD0E1EBE0938000E1E0E09385
:1005B4008100E0E0E0938500E0938400E09387000D
:1005C400E0938600E0938900E0938800E0938B0039
:1005D4008BD0E093B600E1EBE093B000E1E0E09370
:1005E400B100E0E0E093B20084D0E1E0E0936E007B
:1005F400E0E0E0936F00E0937000E0936900EDBBEE
:10060400E0936800E093C100E0E8E0BFE0E0E0933D
:100614007F00E0937E00E0E4E0937C00E7E8E09371
:100624007A00E0E0E0937B00ECBDE093BC00E6BD23
:10063400E2E0E0938400E5E0E093B2007894A1E086
:10064400B0E031DFA5E0B0E061D0499902C0E1E05B
:100654004E2E489B4424359908C0ED2DFE2DA7D17C
:10066400DE2EEE24A4EFB1E051D0A7E067DF6627C9
:10067400772745D0EFEFF3E060E070E040D0ACE3E3
:10068400B0E080E090E02ADE8F01D8010CDF009317
:100694008900D8CFFFCFAC85BD858E859F85089511
:1006A400AC81BD818E819F810895EE81FF81089583
:1006B400A491B0E0E0918001F09181016091820108
:1006C400709183016FD128D2BFD057D00895EDDF48
:1006D400EB5CFF4FEDCFE9DFEA5CFF4FE9CFE0E0F1
:1006E400E7BDEFEFE8BD0895EFEFE0938A00E0E0A7
:1006F4000895E093B300EFEFE093B400089500D2BF
:10070400E0E0F0E060E070E0FBD10895109639F08D
:1007140080ED97E00197F1F7A8951197C9F708952F
:10072400552342F4503811F4E0FF04C03196691F98
:10073400791F6BF050E8572711F45F9373C05F3F44
:1007440031F0660F000C57956795752F08955F93E8
:1007540000200AF073C06CC050E8192E1522880FCF
:10076400991F9527550F879550E8072E0522660F88
:10077400771F7527550F67950895689401C0E8940D
:100784005F93F2DF703818F07F3F08F44BC056E1F6
:10079400571BAAF4519558300EF4593030F0EFEF4E
:1007A400FFEF6FEF7FE777F91AC077275523B9F08A
:1007B400EE0FFF1F661F771F5A95D1F710C07727DA
:1007C400583028F0EF2FF62F672F5850F9CF5523C4
:1007D40031F076956795F795E7955A95D1F700200E
:1007E4000AF4D3D05F910895689401C0E8943097D7
:1007F40060407040B1F0002426F0772312F4009496
:10080400C4D0172E7EE1112032F07A95EE0FFF1F2F
:10081400661F111CF9CFEF2FF62F612D5F938ADF2E
:100824005F910895EE27FF27662777275F91089544
:10083400EFEFFFEF6FE77FEF5F910895EFEFFFEFCB
:100844006FE77FE75F9108955F9386DF703851F318
:10085400903841F301240894791F23F41CF30020F9
:100864003AF3ECCF0F921F932F933F934F9311279B
:1008740022279927689FA0018F9F302D410D591F72
:100884006B9F300D411D591F8E9F27D0BF9F25D0D0
:100894006A9F23D0BE9F1DD0AF9F1BD0AE9F110D6A
:1008A400291F391F491F591FE32FF42F652F522F7A
:1008B4004F913F912F911F910F9066232AF0550F6E
:1008C400EE1FFF1F661F02C073954BF229DF5F9175
:1008D4000895100D211D391F02C0200D311D491F1F
:1008E400591F08955F9338DF703821F411200AF4FA
:1008F4009FCFA4CF903809F495CF01240894970B87
:100904001BF4D4F30020F3CF792F1F932F933F933D
:100914004F9311241127222733274427552790E288
:10092400AE17BF078607410730F0AE1BBF0B860B1F
:10093400410B089401C08894551F221F331F111CBA
:10094400AA1FBB1F881F441F9A9551F7F901612DF7
:100954004F913F912F911F91662332F0550FEE1F57
:10096400FF1F661F7A9543F2DBDE5F910895EA0F5D
:10097400FB1F681F791F0895EA1BFB0B680B790B9B
:100984000895F195E195F0400895F095609570957E
:10099400E195FF4F6F4F7F4F08956F2F660F660BE2
:1009A400762F08958B2F880F880B982F0895EF2B9F
:1009B400E1E009F0E0E00895FA9FF02DEB9FF00DDF
:1009C400EA9FE02DF10D08957A9F702D6B9F700DB5
:1009D400F89F700DE99F700D6A9F602D710DFB9F4C
:1009E400600D711DE89F600D711D8827FA9FF02D21
:1009F400610D781FEB9FF00D611D781FEA9FE02DBC
:100A0400F10D681F781F08954BD0D6DF0EF4B9DFBF
:100A1400089554D0D9DF0EF4B8DF089500241124CA
:100A240090E1AA0FBB1F001C111C0E1A1F0A18F418
:100A34000E0E1F1E01C0A1609A9599F7FD01D00109
:100A440008952ED0EBDF0EF49CDF08953F934F936F
:100A54005F93002411244427552730E2AA0FBB1FBB
:100A6400881F991F001C111C441F551F0E1A1F0AB2
:100A7400460B570B28F40E0E1F1E461F571F01C0AE
:100A8400A1603A9559F7FD01BC01D001CA015F91FB
:100A94004F913F91089512D0D9DF0EF476DF089577
:100AA400E894F7FF02C06DDF6894B7FF06C0A09515
:100AB400B095119600F8039400FA0895E89477FF2E
:100AC40002C063DF689497FF0BC00024A095B09523
:100AD400809590951196801D901D00F8039400FA5E
:100AE4000895E881F9816A817B810895A881B9819B
:100AF4008A819B810895E883F9836A837B830895BF
:100B04007A936A93FA93EA9308959A938A93BA9399
:100B1400AA930895689401C0E89401D068DE182E61
:100B2400862F612D192E972F712D1B2EBF2FF12D7E
:100B34001A2EAE2FE12D089500240A160B0608067E
:100B4400090608955A934A933A932A931A930A9357
:100B540008955D814C813B812A8119810881089522
:00000001FF
