:0C0000003EC1FECFFDCFFCCFFBCFFACFFE
:10000C00F9CFF8CFF7CFF6CFF5CFF4CFF3CFF2CFC0
:10001C00F1CFF0CF80C1EECFEDCFECCFEBCFEACF6D
:10002C00E9CFE8CFE7CFE6CF0000DD0800E1110013
:10003C00E51900E82100EC2A00EF3200F13A00F457
:10004C004200F64A00F85200FA5A00FC6200FD69C0
:10005C0000FE7100FE7800FF8000FF8700FF8E001D
:10006C00FE9500FE9B00FDA200FCA800FAAE00F875
:10007C00B400F6BA00F4C000F1C500EFCA00ECCF32
:10008C0000E8D400E5D900E1DD00DDE100D9E500B0
:10009C00D4E800CFEC00CAEF00C5F100C0F400BA00
:1000AC00F600B4F800AEFA00A8FC00A2FD009BFE1E
:1000BC000095FE008EFF0087FF007FFF0078FE009A
:1000CC0071FE0069FD0062FC005AFA0052F8004A09
:1000DC00F60042F4003AF10032EF002AEC0021E87D
:1000EC000019E50011E10008DD0000E10800E51150
:1000FC0000E81900EC2100EF2A00F13200F43A007C
:10010C00F64200F84A00FA5200FC5A00FD6200FE6A
:10011C006900FE7100FF7800FF7F00FF8700FE8EF4
:10012C0000FE9500FD9B00FCA200FAA800F8AE00B2
:10013C00F6B400F4BA00F1C000EFC500ECCA00E858
:10014C00CF00E5D400E1D900DDDD00D9E100D4E534
:10015C0000CFE800CAEC00C5EF00C0F100BAF40013
:10016C00B4F600AEF800A8FA00A2FC009BFD0095C6
:10017C00FE008EFE0087FF0080FF0078FF0071FEFE
:10018C000069FE0062FD005AFC0052FA004AF800B9
:10019C0042F6003AF40032F1002AEF0021EC00198B
:1001AC00E80011E50008E10000DD0000E10800E5D1
:1001BC001100E81900EC2100EF2A00F13200F43AAA
:1001CC0000F64200F84A00FA5200FC5A00FD6200A8
:1001DC00FE6900FE7100FF7800FF8000FF8700FEC3
:1001EC008E00FE9500FD9B00FCA200FAA800F8AE64
:1001FC0000F6B400F4BA00F1C000EFC500ECCA0080
:10020C00E8CF00E5D400E1D900DDDD00D9E100D470
:10021C00E500CFE800CAEC00C5EF00C0F100BAF46D
:10022C0000B4F600AEF800A8FA00A2FC009BFD009A
:10023C0095FE008EFE0087FF0080FF0078FF0071A6
:10024C00FE0069FE0062FD005AFC0052FA004AF8FA
:10025C000042F6003AF40032F1002AEF0021EC00E3
:10026C0019E80011E50008E17C0001008A01740224
:10027C000000F894EE27EFBBE5BF8DE0A2E0BB27B2
:10028C00ED938A95E9F780E092E0A0E0B1E0ED9380
:10029C000197E9F7E6E7F2E085919591009761F017
:1002AC00A591B59105901590BF01F00105900D92A7
:1002BC000197E1F7FB01F0CFE0E0EEBBEFEFEDBF14
:1002CC00E2E0EEBFC0E8D1E039C243D59FD2E88965
:1002DC00F9896A897B8979D47F936F93FF93EF9324
:1002EC009AD223D572D4AF91BF918F919F91B5D4EF
:1002FC007F936F93FF93EF9389D2E885F9856A8595
:10030C007B8563D4AF91BF918F919F91E8D483D2B9
:10031C0057D4649608950A921A92FA926A937A9331
:10032C008A939A93AA93BA93EA93FA93EFB7EA93C0
:10033C001C9B76D2ACE8B1E07AD2E0918A01F091C4
:10034C008B01A0918C01B0918D01AE17BF07C4F049
:10035C00E0E0E0938C01E0938D016FD219F077D23D
:10036C00109709F49AD173D20BD544F466D234F4B5
:10037C00A0919E01B0919F01109709F001C0C5D0CA
:10038C00AEE8B1E054D2A0918E01B0918F01AB38A0
:10039C00E0E0BE0734F0E0E0E0938E01E0938F01E3
:1003AC000ED0E991EFBFF991E991B991A991999189
:1003BC00899179916991F99019900990189547D282
:1003CC00DFD40CF05AC048D2AE17BF0724F044D289
:1003DC00EA17FB071CF5E0919001F0919101B8969A
:1003EC00E0939001F0939101A0919001B091910153
:1003FC00A436E0E0BE0794F0E0E0E0939001E093D7
:10040C0091012AD2AE17BF071CF42FD2319602C02D
:10041C002CD23197FE93EE932DD2F9D018D212979D
:10042C00D9F42DD22FD226D2119719F4A2EAB1E029
:10043C00FED1A091A201B091A301A536E0E0BE07C8
:10044C0054F0E0E0E093A201E093A301E09380017B
:10045C00E093810122D110C0A7E054D16627772701
:10046C0016D2EFEFF3E060E070E011D2ACE3B0E055
:10047C0080E090E02ADF06D21FC010D281D4C4F4F1
:10048C00A6E9B1E0D4D1E0919801F0919901A09145
:10049C009601B0919701EA17FB0754F4429B02C0F6
:1004AC00429801C0429AE0E0E0939601E0939701F4
:1004BC00CED1109709F4F2D101D00895F4D181F482
:1004CC00309906C0F6D1DBD1E0938401F09385011D
:1004DC00499906C0EED1E0E0E0938401E0938501F8
:1004EC00489912C0E0D151F4E0E0E0939C01E09314
:1004FC009D01E093A001E093A10106C0E2E0F0E0D1
:10050C00E0938001F09381010895229743D4A2E8EF
:10051C00B1E08DD1A0918201B0918301A03CE0E0CB
:10052C00BE0729F4E0E0E0938201E0938301E091BF
:10053C008201F0918301A3E0B0E08AD3EE83FF83C4
:10054C00BED1EC5CFF4FBED11E2FE0918401F09127
:10055C008501309729F4C5D10E2FC7D13E2F04C089
:10056C00C0D13E2FC2D10E2F1A93EDB7FEB7FA931E
:10057C00EA932F93ADB7BEB75F9327D05F912F91BE
:10058C0027BD58BD0A93EDB7FEB7FA93EA932F93A4
:10059C00ADB7BEB75F9319D05F912F9120938800B0
:1005AC0050938A003A93EDB7FEB7FA93EA932F93E0
:1005BC00ADB7BEB75F9309D05F912F912093B30075
:1005CC005093B400EED328960895BA93AA93AC81B5
:1005DC00A33030F4AA81BB81E0E0EC93EC8112C033
:1005EC00AC81AD3F40F0AA81BB81EBEFEC93A881CD
:1005FC00B981EFEF09C0EC81E250AA81BB81EC9389
:10060C00EC81EE5FA881B981EC9325960895BA939D
:10061C00AA9324976ED1309769F4E0E0E0938601B9
:10062C00E0938701E0938801E0938901ECE7F0E027
:10063C0063D166C05ED1ACE7B0E027D35DD159D1B0
:10064C00D5D282D3E1E0F0E060E070E07DD3E2E36C
:10065C00F0E060E070E078D3EEE1F0E060E070E0B4
:10066C0073D3A4E6B0E080E090E02FDEC8D149D18E
:10067C004AD186D209F008F405C0E0E0F0E068EC5D
:10068C0072E43FD140D137D2E0938601F0938701D9
:10069C00609388017093890133C03BD1E0E0E09313
:1006AC0088003CD140D108952697E0E0E883E983A7
:1006BC00EA83EB83EC83ED83419B02C0419801C03C
:1006CC00419A1C9B06C0A0919C01B0919D01119771
:1006DC0059F4A6D0D4D0E0939C01F0939D01429A9A
:1006EC00E3E0F0E0EC83FD8304D1E0939A01F09316
:1006FC009B01E0919A01F0919B01309709F442988B
:10070C0026960895AA93E881E064E0937C008BE13F
:10071C008A95F1F7E0917A00E064E0937A00E09139
:10072C007A00E071E1F3E0917A00E061E0937A0005
:10073C00E0917800F091790021960895E0E8E0933B
:10074C006100E0E0E0936100EFE0E4B9E0E0E5B9DE
:10075C00E6E0E7B9E0E0E8B9E8E6EAB9E0E0EBB9F1
:10076C00E1EBE4BDE1E0E5BDE0E0E6BDD2D0E1EBDC
:10077C00E0938000E1E0E0938100E0E0E09385000D
:10078C00E0938400E0938700E0938600E093890077
:10079C00E0938800E0938B00C1D0E093B600E1EBCE
:1007AC00E093B000E1E0E093B100E0E0E093B20050
:1007BC00BAD0E1E0E0936E00E0E0E0936F00E093EC
:1007CC007000E0936900EDBBE0936800E093C1001A
:1007DC00E0E8E0BFE0E0E0937F00E0937E00E0E43F
:1007EC00E0937C00E3E8E0937A00E0E0E0937B00A8
:1007FC00ECBDE093BC00E6BDE2E0E0938400E5E0F4
:10080C00E093B200789450DFFECFFFCFAC85BD856E
:10081C008E859F850895AC81BD818E819F810895C1
:10082C003CDFE0E0E0938001E09381010895ED91DD
:10083C00FD913196FE93EE930895A0918601B091AF
:10084C00870180918801909189019ED20895A09191
:10085C008001B09181010895E0919401F09195018E
:10086C00A0919201B09193010895A2E9B1E0ED91AC
:10087C00FD910895A0919201B09193010895E1E04A
:10088C00F0E00895E0939401F093950108955CD203
:10089C00E0E0F0E060E070E057D20895A0919A019A
:1008AC00B0919B010895E0918001F0918101309706
:1008BC000895E5DFE0938001F09381010895EE81C6
:1008CC00FF810895A491B0E0E0918601F091870139
:1008DC0060918801709189018ED142D2BED056D0E0
:1008EC000895EDDFEB5CFF4FEDCFE9DFEA5CFF4FE6
:1008FC00E9CFEC81FD810895E0938A01F0938B019F
:10090C0008951DD2089516D2E0E0F0E068EC72E490
:10091C000895E0E0E7BDEFEFE8BD0895EFEFE09359
:10092C008A00E0E00895E093B300EFEFE093B400A9
:10093C000895552342F4503811F4E0FF04C0319669
:10094C00691F791F6BF050E8572711F45F9373C040
:10095C005F3F31F0660F000C57956795752F089522
:10096C005F9300200AF073C06CC050E8192E15225A
:10097C00880F991F9527550F879550E8072E05224C
:10098C00660F771F7527550F67950895689401C0FA
:10099C00E8945F93F2DF703818F07F3F08F44BC097
:1009AC0056E1571BAAF4519558300EF4593030F0DB
:1009BC00EFEFFFEF6FEF7FE777F91AC0772755233B
:1009CC00B9F0EE0FFF1F661F771F5A95D1F710C0B5
:1009DC007727583028F0EF2FF62F672F5850F9CF84
:1009EC00552331F076956795F795E7955A95D1F79C
:1009FC0000200AF4F3D05F910895689401C0E89444
:100A0C00309760407040B1F0002426F0772312F448
:100A1C000094E4D0172E7EE1112032F07A95EE0F7F
:100A2C00FF1F661F111CF9CFEF2FF62F612D5F935F
:100A3C008ADF5F910895EE27FF27662777275F915E
:100A4C000895EFEFFFEF6FE77FEF5F910895EFEF02
:100A5C00FFEF6FE77FE75F9108955F9386DF703854
:100A6C0051F3903841F301240894791F23F41CF3BB
:100A7C0000203AF3ECCF0F921F932F933F934F9399
:100A8C00112722279927689FA0018F9F302D410D98
:100A9C00591F6B9F300D411D591F8E9F27D0BF9F33
:100AAC0025D06A9F23D0BE9F1DD0AF9F1BD0AE9F79
:100ABC00110D291F391F491F591FE32FF42F652FC3
:100ACC00522F4F913F912F911F910F9066232AF037
:100ADC00550FEE1FFF1F661F02C073954BF229DFE7
:100AEC005F910895100D211D391F02C0200D311D7D
:100AFC00491F591F08955F9338DF703821F4112076
:100B0C000AF49FCFA4CF903809F495CF0124089410
:100B1C00970B1BF4D4F30020F3CF792F1F932F9353
:100B2C003F934F931124112722273327442755270E
:100B3C0090E2AE17BF078607410730F0AE1BBF0B24
:100B4C00860B410B089401C08894551F221F331F3C
:100B5C00111CAA1FBB1F881F441F9A9551F7F9013E
:100B6C00612D4F913F912F911F91662332F0550FBC
:100B7C00EE1FFF1F661F7A9543F2DBDE5F9108952F
:100B8C0099239AF0772342F0971748F029F4AE177F
:100B9C00BF07860720F031F09894889408959894B4
:100BAC00089408951894889408957723C2F797179A
:100BBC0098F3A9F7EA17FB07680788F399F3ECCFCA
:100BCC00EA0FFB1F681F791F0895EA1BFB0B680BCC
:100BDC00790B0895F195E195F0400895F0956095A5
:100BEC007095E195FF4F6F4F7F4F08956F2F660FF4
:100BFC00660B762F08958B2F880F880B982F0895EE
:100C0C00FA9FF02DEB9FF00DEA9FE02DF10D08956A
:100C1C007A9F702D6B9F700DF89F700DE99F700D72
:100C2C006A9F602D710DFB9F600D711DE89F600D1B
:100C3C00711D8827FA9FF02D610D781FEB9FF00D29
:100C4C00611D781FEA9FE02DF10D681F781F089534
:100C5C004BD0D6DF0EF4BEDF089554D0D9DF0EF49E
:100C6C00BDDF08950024112490E1AA0FBB1F001CC6
:100C7C00111C0E1A1F0A18F40E0E1F1E01C0A160C3
:100C8C009A9599F7FD01D00108952ED0EBDF0EF463
:100C9C00A1DF08953F934F935F93002411244427C1
:100CAC00552730E2AA0FBB1F881F991F001C111C6F
:100CBC00441F551F0E1A1F0A460B570B28F40E0E15
:100CCC001F1E461F571F01C0A1603A9559F7FD0121
:100CDC00BC01D001CA015F914F913F91089512D090
:100CEC00D9DF0EF47BDF0895E894F7FF02C072DFC2
:100CFC006894B7FF06C0A095B095119600F80394C0
:100D0C0000FA0895E89477FF02C068DF689497FFB3
:100D1C000BC00024A095B095809590951196801DE0
:100D2C00901D00F8039400FA0895E881F9816A8116
:100D3C007B810895A881B9818A819B810895E8837C
:100D4C00F9836A837B8308957A936A93FA93EA937F
:100D5C0008959A938A93BA93AA930895689401C0BC
:100D6C00E89401D04DDE182E862F612D192E972F69
:100D7C00712D1B2EBF2FF12D1A2EAE2FE12D0895A4
:100D8C0000240A160B06089500240A160B06080602
:100D9C00090608955A934A933A932A931A930A93FD
:100DAC0008955D814C813B812A81198108810895C8
:00000001FF
