:1000000043C1FECFFDCFFCCFFBCFFACFF9CFF8CF66
:10001000F7CFF6CFF5CFF4CFF3CFF2CFF1CFF0CFCC
:1000200085C1EECFEDCFECCFEBCFEACFE9CFE8CF74
:10003000E7CFE6CF0000DD0800E11100E51900E898
:100040002100EC2A00EF3200F13A00F44200F64AB7
:1000500000F85200FA5A00FC6200FD6900FE7100CF
:10006000FE7800FF8000FF8700FF8E00FE9500FEF7
:100070009B00FDA200FCA800FAAE00F8B400F6BA9E
:1000800000F4C000F1C500EFCA00ECCF00E8D400D6
:10009000E5D900E1DD00DDE100D9E500D4E800CFDD
:1000A000EC00CAEF00C5F100C0F400BAF600B4F8E5
:1000B00000AEFA00A8FC00A2FD009BFE0095FE0029
:1000C0008EFF0087FF007FFF0078FE0071FE006951
:1000D000FD0062FC005AFA0052F8004AF60042F4B1
:1000E000003AF10032EF002AEC0021E80019E500A7
:1000F00011E10008DD0000E10800E51100E8190049
:10010000EC2100EF2A00F13200F43A00F64200F848
:100110004A00FA5200FC5A00FD6200FE6900FE71BE
:1001200000FF7800FF7F00FF8700FE8E00FE950035
:10013000FD9B00FCA200FAA800F8AE00F6B400F4A3
:10014000BA00F1C000EFC500ECCA00E8CF00E5D46A
:1001500000E1D900DDDD00D9E100D4E500CFE80001
:10016000CAEC00C5EF00C0F100BAF400B4F600AE6E
:10017000F800A8FA00A2FC009BFD0095FE008EFE90
:100180000087FF0080FF0078FF0071FE0069FE001D
:1001900062FD005AFC0052FA004AF80042F6003AAA
:1001A000F40032F1002AEF0021EC0019E80011E51B
:1001B0000008E10000DD0000E10800E51100E81999
:1001C00000EC2100EF2A00F13200F43A00F6420080
:1001D000F84A00FA5200FC5A00FD6200FE6900FE77
:1001E0007100FF7800FF8000FF8700FE8E00FE9503
:1001F00000FD9B00FCA200FAA800F8AE00F6B400D7
:10020000F4BA00F1C000EFC500ECCA00E8CF00E589
:10021000D400E1D900DDDD00D9E100D4E500CFE86C
:1002200000CAEC00C5EF00C0F100BAF400B4F6005B
:10023000AEF800A8FA00A2FC009BFD0095FE008E1F
:10024000FE0087FF0080FF0078FF0071FE0069FE5E
:100250000062FD005AFC0052FA004AF80042F60023
:100260003AF40032F1002AEF0021EC0019E8001105
:10027000E50008E1000000000000000000000000B0
:100280000B00040074020000F894EE27EFBBE5BFFA
:100290008DE0A2E0BB27ED938A95E9F780E092E03C
:1002A000A0E0B1E0ED930197E9F7E0E8F2E0859195
:1002B0009591009761F0A591B59105901590BF01BA
:1002C000F00105900D920197E1F7FB01F0CFE0E01E
:1002D000EEBBEFEFEDBFE2E0EEBFC0E8D1E029C139
:1002E000C4D395D1E889F9896A897B89FAD27F9349
:1002F0006F93FF93EF9390D1A4D3F3D2AF91BF91BB
:100300008F919F9136D37F936F93FF93EF937FD11C
:10031000E885F9856A857B85E4D2AF91BF918F919D
:100320009F9169D379D1D8D2649608950A921A928E
:10033000FA926A937A938A939A93AA93BA93EA93D6
:10034000FA93EFB7EA93E1E0F0E0BE0ECF1EB914E6
:10035000CA047CF0BB24CC2464D119F0E0E0E4159D
:1003600009F4E0D0E1E0E41511F45BD10CF001C038
:100370001BD0E1E0F0E0DE0EEF1EEAE8F0E0ED1564
:10038000FE051CF4DD24EE240ED0E991EFBFF991B7
:10039000E991B991A9919991899179916991F9908E
:1003A000199009901895089522977CD3E1E0F0E028
:1003B0005E0E6F1EE0ECF0E0E515F60511F4552435
:1003C0006624E52DF62DA3E0B0E0CED2EE83FF83C8
:1003D00032D1EC5CFF4F32D11E2F072C082829F4B4
:1003E0003CD10E2F3ED13E2F04C037D13E2F39D104
:1003F0000E2F1A93EDB7FEB7FA93EA932F93ADB78A
:10040000BEB75F9327D05F912F9127BD58BD0A9348
:10041000EDB7FEB7FA93EA932F93ADB7BEB75F93EC
:1004200019D05F912F912093880050938A003A93BE
:10043000EDB7FEB7FA93EA932F93ADB7BEB75F93CC
:1004400009D05F912F912093B3005093B40031D322
:1004500028960895BA93AA93AC81A33030F4AA8168
:10046000BB81E0E0EC93EC8112C0AC81AD3F40F089
:10047000AA81BB81EBEFEC93A881B981EFEF09C0B2
:10048000EC81E250AA81BB81EC93EC81EE5FA88104
:10049000B981EC9325960895BA93AA932497EC8199
:1004A000FD81309771F4E0E0E0938001E0938101F9
:1004B000E0938201E0938301ECE7F0E09E2EAF2E03
:1004C0002FC0EC81FD81ACE7B0E06BD29E2EAF2E49
:1004D000EC81FD8117D2C4D2E1E0F0E060E070E091
:1004E000BFD2ECE3F0E060E070E0BAD2EEE1F0E021
:1004F00060E070E0B5D2A4E6B0E080E090E0F0DE2D
:100500002AD1A9D2A3D2E0E0F0E068EC72E49FD156
:10051000E0938001F09381016093820170938301E5
:1005200026960895A2D0E0E0E0938800A3D0A7D05B
:10053000089500E010E0E0E8E0936100E0E0E0937F
:100540006100EFE0E4B9E0E0E5B9E6E0E7B9E0E05A
:10055000E8B9E8E6EAB9E0E0EBB9E1EBE4BDE1E0F7
:10056000E5BDE0E0E6BD81D0E1EBE0938000E1E0B5
:10057000E0938100E0E0E0938500E0938400E09365
:100580008700E0938600E0938900E0938800E09381
:100590008B0070D0E093B600E1EBE093B000E1E0B7
:1005A000E093B100E0E0E093B20069D0E1E0E093D5
:1005B0006E00E0E0E0936F00E0937000E09369006C
:1005C000EDBBE0936800E093C100E0E8E0BFE0E04D
:1005D000E0937F00E0937E00E0E4E0937C00E7E8B6
:1005E000E0937A00E0E0E0937B00ECBDE093BC0098
:1005F000E6BDE2E0E0938400E5E0E093B2007894A9
:10060000A2E3B0E049DFE1E04E2EFFCFFFCFAC85A3
:10061000BD858E859F850895AC81BD818E819F812A
:100620000895A0918001B091810180918201909103
:10063000830132D20895EE81FF810895A491B0E044
:10064000E0918001F09181016091820170918301BC
:100650005ED112D2AED046D00895EDDFEB5CFF4FF5
:10066000EDCFE9DFEA5CFF4FE9CFE0E0E7BDEFEF78
:10067000E8BD0895EFEFE0938A00E0E00895E0938D
:10068000B300EFEFE093B4000895552342F45038DF
:1006900011F4E0FF04C03196691F791F6BF050E838
:1006A000572711F45F9373C05F3F31F0660F000C62
:1006B00057956795752F08955F9300200AF073C0D2
:1006C0006CC050E8192E1522880F991F9527550FD9
:1006D000879550E8072E0522660F771F7527550F5F
:1006E00067950895689401C0E8945F93F2DF7038CD
:1006F00018F07F3F08F44BC056E1571BAAF4519500
:1007000058300EF4593030F0EFEFFFEF6FEF7FE726
:1007100077F91AC077275523B9F0EE0FFF1F661F30
:10072000771F5A95D1F710C07727583028F0EF2F50
:10073000F62F672F5850F9CF552331F076956795EE
:10074000F795E7955A95D1F700200AF4D3D05F9139
:100750000895689401C0E894309760407040B1F00B
:10076000002426F0772312F40094C4D0172E7EE1E3
:10077000112032F07A95EE0FFF1F661F111CF9CF82
:10078000EF2FF62F612D5F938ADF5F910895EE279B
:10079000FF27662777275F910895EFEFFFEF6FE759
:1007A0007FEF5F910895EFEFFFEF6FE77FE75F91D6
:1007B00008955F9386DF703851F3903841F3012438
:1007C0000894791F23F41CF300203AF3ECCF0F9226
:1007D0001F932F933F934F93112722279927689FA9
:1007E000A0018F9F302D410D591F6B9F300D411D72
:1007F000591F8E9F27D0BF9F25D06A9F23D0BE9FB1
:100800001DD0AF9F1BD0AE9F110D291F391F491F4F
:10081000591FE32FF42F652F522F4F913F912F91A6
:100820001F910F9066232AF0550FEE1FFF1F661FC2
:1008300002C073954BF229DF5F910895100D211DC1
:10084000391F02C0200D311D491F591F08955F93A4
:1008500038DF703821F411200AF49FCFA4CF9038EC
:1008600009F495CF01240894970B1BF4D4F30020CE
:10087000F3CF792F1F932F933F934F931124112779
:10088000222733274427552790E2AE17BF07860754
:10089000410730F0AE1BBF0B860B410B089401C023
:1008A0008894551F221F331F111CAA1FBB1F881FAE
:1008B000441F9A9551F7F901612D4F913F912F9166
:1008C0001F91662332F0550FEE1FFF1F661F7A95AA
:1008D00043F2DBDE5F910895EA0FFB1F681F791F6B
:1008E0000895EA1BFB0B680B790B0895F195E195D0
:1008F000F0400895F09560957095E195FF4F6F4F2A
:100900007F4F08956F2F660F660B762F08958B2FFC
:10091000880F880B982F0895FA9FF02DEB9FF00D0C
:10092000EA9FE02DF10D08957A9F702D6B9F700D59
:10093000F89F700DE99F700D6A9F602D710DFB9FF0
:10094000600D711DE89F600D711D8827FA9FF02DC5
:10095000610D781FEB9FF00D611D781FEA9FE02D60
:10096000F10D681F781F08954BD0D6DF0EF4BEDF5F
:10097000089554D0D9DF0EF4BDDF0895002411246A
:1009800090E1AA0FBB1F001C111C0E1A1F0A18F4BD
:100990000E0E1F1E01C0A1609A9599F7FD01D001AE
:1009A00008952ED0EBDF0EF4A1DF08953F934F930F
:1009B0005F93002411244427552730E2AA0FBB1F60
:1009C000881F991F001C111C441F551F0E1A1F0A57
:1009D000460B570B28F40E0E1F1E461F571F01C053
:1009E000A1603A9559F7FD01BC01D001CA015F91A0
:1009F0004F913F91089512D0D9DF0EF47BDF089517
:100A0000E894F7FF02C072DF6894B7FF06C0A095B4
:100A1000B095119600F8039400FA0895E89477FFD2
:100A200002C068DF689497FF0BC00024A095B095C2
:100A3000809590951196801D901D00F8039400FA02
:100A40000895E881F9816A817B810895A881B9813F
:100A50008A819B810895E883F9836A837B83089563
:100A60007A936A93FA93EA9308959A938A93BA933E
:100A7000AA930895689401C0E89401D06DDE182E01
:100A8000862F612D192E972F712D1B2EBF2FF12D23
:100A90001A2EAE2FE12D089500240A160B06080623
:100AA000090608955A934A933A932A931A930A93FC
:100AB00008955D814C813B812A81198108810895C7
:00000001FF
