:0A00000048C1FECFFDCFFCCFFBCFBF
:10000A00FACFF9CFF8CFF7CFF6CFF5CFF4CFF3CFBA
:10001A00F2CFF1CFF0CF64C1EECFEDCFECCFEBCF83
:10002A00EACFE9CFE8CFE7CFE6CF0000DD0800E16D
:10003A001100E51900E82100EC2A00EF3200F13A3C
:10004A0000F44200F64A00F85200FA5A00FC620034
:10005A00FD6900FE7100FE7800FF8000FF8700FF47
:10006A008E00FE9500FE9B00FDA200FCA800FAAEE1
:10007A0000F8B400F6BA00F4C000F1C500EFCA00F7
:10008A00ECCF00E8D400E5D900E1DD00DDE100D9DC
:10009A00E500D4E800CFEC00CAEF00C5F100C0F4D7
:1000AA0000BAF600B4F800AEFA00A8FC00A2FD00FF
:1000BA009BFE0095FE008EFF0087FF007FFF007801
:1000CA00FE0071FE0069FD0062FC005AFA0052F857
:1000DA00004AF60042F4003AF10032EF002AEC003E
:1000EA0021E80019E50011E10008DD0000E108003F
:1000FA00E51100E81900EC2100EF2A00F13200F4C2
:10010A003A00F64200F84A00FA5200FC5A00FD6230
:10011A0000FE6900FE7100FF7800FF7F00FF870084
:10012A00FE8E00FE9500FD9B00FCA200FAA800F8D6
:10013A00AE00F6B400F4BA00F1C000EFC500ECCA94
:10014A0000E8CF00E5D400E1D900DDDD00D9E10007
:10015A00D4E500CFE800CAEC00C5EF00C0F100BA50
:10016A00F400B4F600AEF800A8FA00A2FC009BFD69
:10017A000095FE008EFE0087FF0080FF0078FF00DA
:10018A0071FE0069FE0062FD005AFC0052FA004A44
:10019A00F80042F6003AF40032F1002AEF0021ECAE
:1001AA000019E80011E50008E10000DD0000E1089F
:1001BA0000E51100E81900EC2100EF2A00F13200F5
:1001CA00F43A00F64200F84A00FA5200FC5A00FDDE
:1001DA006200FE6900FE7100FF7800FF8000FF8761
:1001EA0000FE8E00FE9500FD9B00FCA200FAA8000E
:1001FA00F8AE00F6B400F4BA00F1C000EFC500ECA6
:10020A00CA00E8CF00E5D400E1D900DDDD00D9E17C
:10021A0000D4E500CFE800CAEC00C5EF00C0F10049
:10022A00BAF400B4F600AEF800A8FA00A2FC009BEB
:10023A00FD0095FE008EFE0087FF0080FF0078FF1C
:10024A000071FE0069FE0062FD005AFC0052FA00CD
:10025A004AF80042F6003AF40032F1002AEF00218F
:10026A00EC0019E80011E50008E1000000000000B8
:10027A000000000000000000003F0C0003007402B0
:10028A000400800180020000F894EE27EFBBE5BF6E
:10029A008DE0A2E0BB27ED938A95E9F780E092E032
:1002AA00A0E0B1E0ED930197E9F7E4E8F2E0859187
:1002BA009591009761F0A591B59105901590BF01B0
:1002CA00F00105900D920197E1F7FB01F0CFE0E014
:1002DA00EEBBEFEFEDBFE2E0EEBFC0E8D1E0BDC09C
:1002EA000A921A92FA926A937A938A939A93AA939F
:1002FA00BA93EA93FA93EFB7EA93A4E8B1E0ED91DF
:10030A00FD913196FE93EE93A0918401B0918501FF
:10031A00AD15BE055CF0E0E0E0938401E093850151
:10032A00589B02C0589801C0589A18D047BC38BC8C
:10033A006092880050928A008092B3007092B40052
:10034A00E991EFBFF991E991B991A99199918991AF
:10035A0079916991F990199009901895229742D24A
:10036A00E1E0F0E09E0EAF1EE0ECF0E0E915FA05E0
:10037A0011F49924AA24E92DFA2DA3E0B0E0F5D1CD
:10038A00EE83FF83D3D0EC5CFF4FD3D01E2F0B2C10
:10039A000C2829F4DDD00E2FDFD03E2F04C0D8D090
:1003AA003E2FDAD00E2F1A93EDB7FEB7FA93EA93DF
:1003BA002F93ADB7BEB75F9323D05F912F91422E93
:1003CA00352E0A93EDB7FEB7FA93EA932F93ADB79A
:1003DA00BEB75F9315D05F912F91622E552E3A9337
:1003EA00EDB7FEB7FA93EA932F93ADB7BEB75F9313
:1003FA0007D05F912F91822E752EFBD128960895F2
:10040A00BA93AA93AC81A33030F4AA81BB81E0E00D
:10041A00EC93EC8112C0AC81AD3F40F0AA81BB8164
:10042A00EBEFEC93A881B981EFEF09C0EC81E250C0
:10043A00AA81BB81EC93EC81EE5FA881B981EC9330
:10044A0025960895BA93AA93E881F981ACE7B0E0BA
:10045A00A4D1DE2EEF2E22960895E0E8E093610003
:10046A00E0E0E0936100EFE0E4B9E0E0E5B9E7B984
:10047A00E8B9E9E6EAB9E0E0EBB9E1EBE4BDE1E0CD
:10048A00E5BDE0E0E6BDE7BDE8BDE1EBE093800055
:10049A00E1E0E0938100E0E0E0938500E0938400EE
:1004AA00E0938700E0938600E0938900E093880058
:1004BA00E0938B00E0938A00E093B600E1EBE093CF
:1004CA00B000E1E0E093B100E0E0E093B200E09335
:1004DA00B300E093B400E1E0E0936E00E0E0E09363
:1004EA006F00E0937000E0936900EDBBE093680051
:1004FA00E093C100E0E8E0BFE0E0E0937F00E09332
:10050A007E00E0E4E0937C00E7E8E0937A00E0E034
:10051A00E0937B00ECBDE093BC007894A2E3B0E0EA
:10052A0091DFA1E0B0E01CD0FCCFFFCFEE81FF81CC
:10053A000895A491B0E0E0918001F0918101609169
:10054A0082017091830104D13DD1A8D040D0089591
:10055A00EDDFEB5CFF4FEDCFE9DFEA5CFF4FE9CF60
:10056A00109639F080ED97E00197F1F7A895119769
:10057A00C9F70895552342F4503811F4E0FF04C036
:10058A003196691F791F6BF050E8572711F45F9372
:10059A0073C05F3F31F0660F000C57956795752F52
:1005AA0008955F9300200AF073C06CC050E8192EBA
:1005BA001522880F991F9527550F879550E8072E02
:1005CA000522660F771F7527550F6795089568945A
:1005DA0001C0E8945F93F2DF703818F07F3F08F4A7
:1005EA004BC056E1571BAAF4519558300EF45930B6
:1005FA0030F0EFEFFFEF6FEF7FE777F91AC0772759
:10060A005523B9F0EE0FFF1F661F771F5A95D1F7D2
:10061A0010C07727583028F0EF2FF62F672F585041
:10062A00F9CF552331F076956795F795E7955A9561
:10063A00D1F700200AF484D05F910895689401C02C
:10064A00E894309760407040B1F0002426F0772398
:10065A0012F4009475D0172E7EE1112032F07A95AB
:10066A00EE0FFF1F661F111CF9CFEF2FF62F612D1A
:10067A005F938ADF5F910895EE27FF276627772722
:10068A005F910895EFEFFFEF6FE77FEF5F910895B6
:10069A00EFEFFFEF6FE77FE75F9108955F9386DFE4
:1006AA00703851F3903841F301240894791F23F4E8
:1006BA001CF300203AF3ECCF0F921F932F933F9332
:1006CA004F93112722279927689FA0018F9F302DCA
:1006DA00410D591F6B9F300D411D591F8E9F27D009
:1006EA00BF9F25D06A9F23D0BE9F1DD0AF9F1BD02E
:1006FA00AE9F110D291F391F491F591FE32FF42FD0
:10070A00652F522F4F913F912F911F910F90662382
:10071A002AF0550FEE1FFF1F661F02C073954BF29A
:10072A0029DF5F910895100D211D391F02C0200D88
:10073A00311D491F591F0895F195E195F04008951B
:10074A00F09560957095E195FF4F6F4F7F4F089533
:10075A008B2F880F880B982F0895FA9FF02DEB9F07
:10076A00F00DEA9FE02DF10D08951CD0F6DF0EF48E
:10077A00E3DF08950024112490E1AA0FBB1F001C97
:10078A00111C0E1A1F0A18F40E0E1F1E01C0A160BA
:10079A009A9599F7FD01D001089504D0EBDF0EF484
:1007AA00CBDF0895E894F7FF02C0C6DF6894B7FF6D
:1007BA0006C0A095B095119600F8039400FA089522
:1007CA00689401C0E89401D03CDF182E862F612D71
:1007DA00192E972F712D1B2EBF2FF12D1A2EAE2FEA
:1007EA00E12D08955A934A933A932A931A930A93B6
:1007FA0008955D814C813B812A8119810881089580
:00000001FF
