:040000003EC1FECF30
:10000400FDCFFCCFFBCFFACFF9CFF8CFF7CFF6CFA8
:10001400F5CFF4CFF3CFF2CFF1CFF0CF80C1EECF55
:10002400EDCFECCFEBCFEACFE9CFE8CFE7CFE6CF08
:100034000000DD0800E11100E51900E82100EC2AC8
:1000440000EF3200F13A00F44200F64A00F85200A0
:10005400FA5A00FC6200FD6900FE7100FE7800FFA0
:100064008000FF8700FF8E00FE9500FE9B00FDA22E
:1000740000FCA800FAAE00F8B400F6BA00F4C00020
:10008400F1C500EFCA00ECCF00E8D400E5D900E1E7
:10009400DD00DDE100D9E500D4E800CFEC00CAEFD3
:1000A40000C5F100C0F400BAF600B4F800AEFA00DE
:1000B400A8FC00A2FD009BFE0095FE008EFF0087B9
:1000C400FF007FFF0078FE0071FE0069FD0062FC06
:1000D400005AFA0052F8004AF60042F4003AF100DD
:1000E40032EF002AEC0021E80019E50011E10008D4
:1000F400DD0000E10800E51100E81900EC2100EF43
:100104002A00F13200F43A00F64200F84A00FA52AA
:1001140000FC5A00FD6200FE6900FE7100FF7800D9
:10012400FF7F00FF8700FE8E00FE9500FD9B00FC14
:10013400A200FAA800F8AE00F6B400F4BA00F1C0C8
:1001440000EFC500ECCA00E8CF00E5D400E1D90017
:10015400DDDD00D9E100D4E500CFE800CAEC00C53C
:10016400EF00C0F100BAF400B4F600AEF800A8FA4B
:1001740000A2FC009BFD0095FE008EFE0087FF00A0
:1001840080FF0078FF0071FE0069FE0062FD005AE6
:10019400FC0052FA004AF80042F6003AF40032F148
:1001A400002AEF0021EC0019E80011E50008E10045
:1001B40000DD0000E10800E51100E81900EC210071
:1001C400EF2A00F13200F43A00F64200F84A00FA4D
:1001D4005200FC5A00FD6200FE6900FE7100FF78C7
:1001E40000FF8000FF8700FE8E00FE9500FD9B004F
:1001F400FCA200FAA800F8AE00F6B400F4BA00F1CC
:10020400C000EFC500ECCA00E8CF00E5D400E1D996
:1002140000DDDD00D9E100D4E500CFE800CAEC0040
:10022400C5EF00C0F100BAF400B4F600AEF800A8BF
:10023400FA00A2FC009BFD0095FE008EFE0087FFE5
:100244000080FF0078FF0071FE0069FE0062FD007F
:100254005AFC0052FA004AF80042F6003AF400321E
:10026400F1002AEF0021EC0019E80011E50008E193
:100274007C0001008A0174020000F894EE27EFBBB1
:10028400E5BF8DE0A2E0BB27ED938A95E9F780E016
:1002940092E0A0E0B1E0ED930197E9F7E6E7F2E040
:1002A40085919591009761F0A591B5910590159070
:1002B400BF01F00105900D920197E1F7FB01F0CF2A
:1002C400E0E0EEBBEFEFEDBFE2E0EEBFC0E8D1E06F
:1002D400F2C1DFD45ED2E889F9896A897B8915D4B1
:1002E4007F936F93FF93EF9359D2BFD40ED4AF9102
:1002F400BF918F919F9151D47F936F93FF93EF930D
:1003040048D2E885F9856A857B85FFD3AF91BF9193
:100314008F919F9184D442D2F3D3649608950A9224
:100324001A92FA926A937A938A939A93AA93BA93B3
:10033400EA93FA93EFB7EA93ACE8B1E034D2E091F0
:100344008A01F0918B01A0918C01B0918D01AE17BF
:10035400BF0794F0E0E0E0938C01E0938D0129D293
:1003640019F031D2109709F463D12DD2119711F4F9
:1003740020D20CF001C090D0AEE8B1E014D2A0912C
:100384008E01B0918F01AB38E0E0BE0734F0E0E0BD
:10039400E0938E01E0938F010ED0E991EFBFF991C4
:1003A400E991B991A9919991899179916991F9907A
:1003B40019900990189507D2119709F042C008D2F4
:1003C400AE17BF0724F004D2EA17FB0734F5E09117
:1003D4009001F0919101B896E0939001F09391010E
:1003E400A0919001B0919101A436E0E0BE07ACF079
:1003F400E0E0E0939001E0939101EAD1AE17BF07EA
:100404001CF4EFD1319602C0ECD13197FE93EE93F8
:10041400A0919201B0919301C1D0A7E030D1662799
:100424007727E4D1EFEFF3E060E070E0DFD1ACE3F5
:10043400B0E080E090E04DDFE0939401F09395010B
:100444002AC0E1E0F0E0E0939201F0939301D5D16A
:1004540037D4CCF44298A6E9B1E0A5D1E091980153
:10046400F0919901A0919601B0919701EA17FB07C9
:1004740054F4419B02C0419801C0419AE0E0E093EA
:100484009601E09397019FD1109719F4B6D1109774
:1004940009F001C0429A089522971CD4A2E8B1E061
:1004A40082D1A0918201B0918301A03CE0E0BE071B
:1004B40029F4E0E0E0938201E0938301E09182017A
:1004C400F0918301A3E0B0E063D3EE83FF839AD17C
:1004D400EC5CFF4F9AD11E2FE0918401F0918501CD
:1004E400309729F4A1D10E2FA3D13E2F04C09CD163
:1004F4003E2F9ED10E2F1A93EDB7FEB7FA93EA93CF
:100504002F93ADB7BEB75F9327D05F912F9127BDCF
:1005140058BD0A93EDB7FEB7FA93EA932F93ADB79C
:10052400BEB75F9319D05F912F91209388005093A9
:100534008A003A93EDB7FEB7FA93EA932F93ADB7D7
:10054400BEB75F9309D05F912F912093B30050936E
:10055400B400C7D328960895BA93AA93AC81A33064
:1005640030F4AA81BB81E0E0EC93EC8112C0AC8151
:10057400AD3F40F0AA81BB81EBEFEC93A881B98138
:10058400EFEF09C0EC81E250AA81BB81EC93EC81CE
:10059400EE5FA881B981EC9325960895BA93AA9346
:1005A4002497EC81FD81309769F4E0E0E0938601C3
:1005B400E0938701E0938801E0938901ECE7F0E0A0
:1005C4003BD134C0EC81FD81ACE7B0E0FED234D144
:1005D400EC81FD81ABD258D3E1E0F0E060E070E063
:1005E40053D3E2E3F0E060E070E04ED3EEE1F0E0FC
:1005F40060E070E049D3A4E6B0E080E090E069DE1A
:100604009ED11FD120D15CD209F008F405C0E0E0EE
:10061400F0E068EC72E415D116D10DD2E0938601B6
:10062400F093870160938801709389012696089559
:1006340010D1E0E0E093880011D115D108954ED394
:1006440000E010E04C9B0DC0E0E0E0938001E093FB
:10065400810105E010E0E4E6F0E0E0939801F09316
:10066400990100939A0110939B01E0919A01F091F2
:100674009B01309709F44198099119910895AA931F
:10068400E881E064E0937C008BE18A95F1F7E091E6
:100694007A00E064E0937A00E0917A00E071E1F39B
:1006A400E0917A00E061E0937A00E0917800F091C3
:1006B400790021960895E0E8E0936100E0E0E0939A
:1006C4006100EFE0E4B9E0E0E5B9E6E0E7B9E0E0D5
:1006D400E8B9E8E6EAB9E0E0EBB9E1EBE4BDE1E072
:1006E400E5BDE0E0E6BDB5D0E1EBE0938000E1E0FC
:1006F400E0938100E0E0E0938500E0938400E093E0
:100704008700E0938600E0938900E0938800E093FB
:100714008B00A4D0E093B600E1EBE093B000E1E0FD
:10072400E093B100E0E0E093B2009DD0E1E0E0931B
:100734006E00E0E0E0936F00E0937000E0936900E6
:10074400EDBBE0936800E093C100E0E8E0BFE0E0C7
:10075400E0937F00E0937E00E0E4E0937C00E7E830
:10076400E0937A00E0E0E0937B00ECBDE093BC0012
:10077400E6BDE2E0E0938400E5E0E093B200789423
:10078400E1E0F0E0E0938001F093810158DFFECFD7
:10079400FFCFAC85BD858E859F850895AC81BD81D5
:1007A4008E819F810895ED91FD913196FE93EE9394
:1007B4000895A0918601B09187018091880190915C
:1007C400890182D20895A0918001B0918101089598
:1007D400E0919401F0919501A0919201B09193015F
:1007E4000895A2E9B1E0ED91FD9108954DD2E0E0C4
:1007F400F0E060E070E048D20895A0919A01B091D1
:100804009B010895EE81FF810895A491B0E0E091E9
:100814008601F091870160918801709189018BD1E3
:100824003FD2BBD053D00895EDDFEB5CFF4FEDCF4B
:10083400E9DFEA5CFF4FE9CFE0938A01F0938B0193
:1008440008951DD2089516D2E0E0F0E068EC72E459
:100854000895E0E0E7BDEFEFE8BD0895EFEFE09322
:100864008A00E0E00895E093B300EFEFE093B40072
:100874000895552342F4503811F4E0FF04C0319632
:10088400691F791F6BF050E8572711F45F9373C009
:100894005F3F31F0660F000C57956795752F0895EB
:1008A4005F9300200AF073C06CC050E8192E152223
:1008B400880F991F9527550F879550E8072E052215
:1008C400660F771F7527550F67950895689401C0C3
:1008D400E8945F93F2DF703818F07F3F08F44BC060
:1008E40056E1571BAAF4519558300EF4593030F0A4
:1008F400EFEFFFEF6FEF7FE777F91AC07727552304
:10090400B9F0EE0FFF1F661F771F5A95D1F710C07D
:100914007727583028F0EF2FF62F672F5850F9CF4C
:10092400552331F076956795F795E7955A95D1F764
:1009340000200AF4F3D05F910895689401C0E8940C
:10094400309760407040B1F0002426F0772312F411
:100954000094E4D0172E7EE1112032F07A95EE0F48
:10096400FF1F661F111CF9CFEF2FF62F612D5F9328
:100974008ADF5F910895EE27FF27662777275F9127
:100984000895EFEFFFEF6FE77FEF5F910895EFEFCB
:10099400FFEF6FE77FE75F9108955F9386DF70381D
:1009A40051F3903841F301240894791F23F41CF384
:1009B40000203AF3ECCF0F921F932F933F934F9362
:1009C400112722279927689FA0018F9F302D410D61
:1009D400591F6B9F300D411D591F8E9F27D0BF9FFC
:1009E40025D06A9F23D0BE9F1DD0AF9F1BD0AE9F42
:1009F400110D291F391F491F591FE32FF42F652F8C
:100A0400522F4F913F912F911F910F9066232AF0FF
:100A1400550FEE1FFF1F661F02C073954BF229DFAF
:100A24005F910895100D211D391F02C0200D311D45
:100A3400491F591F08955F9338DF703821F411203E
:100A44000AF49FCFA4CF903809F495CF01240894D9
:100A5400970B1BF4D4F30020F3CF792F1F932F931C
:100A64003F934F93112411272227332744275527D7
:100A740090E2AE17BF078607410730F0AE1BBF0BED
:100A8400860B410B089401C08894551F221F331F05
:100A9400111CAA1FBB1F881F441F9A9551F7F90107
:100AA400612D4F913F912F911F91662332F0550F85
:100AB400EE1FFF1F661F7A9543F2DBDE5F910895F8
:100AC40099239AF0772342F0971748F029F4AE1748
:100AD400BF07860720F031F098948894089598947D
:100AE400089408951894889408957723C2F7971763
:100AF40098F3A9F7EA17FB07680788F399F3ECCF93
:100B0400EA0FFB1F681F791F0895EA1BFB0B680B94
:100B1400790B0895F195E195F0400895F09560956D
:100B24007095E195FF4F6F4F7F4F08956F2F660FBC
:100B3400660B762F08958B2F880F880B982F0895B6
:100B4400FA9FF02DEB9FF00DEA9FE02DF10D089533
:100B54007A9F702D6B9F700DF89F700DE99F700D3B
:100B64006A9F602D710DFB9F600D711DE89F600DE4
:100B7400711D8827FA9FF02D610D781FEB9FF00DF2
:100B8400611D781FEA9FE02DF10D681F781F0895FD
:100B94004BD0D6DF0EF4BEDF089554D0D9DF0EF467
:100BA400BDDF08950024112490E1AA0FBB1F001C8F
:100BB400111C0E1A1F0A18F40E0E1F1E01C0A1608C
:100BC4009A9599F7FD01D00108952ED0EBDF0EF42C
:100BD400A1DF08953F934F935F930024112444278A
:100BE400552730E2AA0FBB1F881F991F001C111C38
:100BF400441F551F0E1A1F0A460B570B28F40E0EDE
:100C04001F1E461F571F01C0A1603A9559F7FD01E9
:100C1400BC01D001CA015F914F913F91089512D058
:100C2400D9DF0EF47BDF0895E894F7FF02C072DF8A
:100C34006894B7FF06C0A095B095119600F8039488
:100C440000FA0895E89477FF02C068DF689497FF7C
:100C54000BC00024A095B095809590951196801DA9
:100C6400901D00F8039400FA0895E881F9816A81DF
:100C74007B810895A881B9818A819B810895E88345
:100C8400F9836A837B8308957A936A93FA93EA9348
:100C940008959A938A93BA93AA930895689401C085
:100CA400E89401D04DDE182E862F612D192E972F32
:100CB400712D1B2EBF2FF12D1A2EAE2FE12D08956D
:100CC40000240A160B06089500240A160B060806CB
:100CD400090608955A934A933A932A931A930A93C6
:100CE40008955D814C813B812A8119810881089591
:00000001FF
