:02000000A7C097
:10000200FECFFDCFFCCFFBCFFACFF9CFF8CFF7CFA2
:10001200F6CFF5CFF4CFF3CFF2CFF1CFF0CFC3C00D
:10002200EECFEDCFECCFEBCFEACFE9CFE8CFE7CF02
:10003200E6CF00060C12181E242A2F353A40454AF4
:100042004F53585C6064676B6E70737577797A7B17
:100052007C7C7C7C7C7B7A79777573716E6B676450
:10006200605C58534F4A45403A352F2A241E1812D5
:100072000C0600F9F3EDE7E1DBD5D0CAC5BFBAB58E
:10008200B0ACA7A39F9B9894918F8C8A8886858415
:100092008383838383848586888A8C8E9194989BBC
:1000A2009FA3A7ACB0B5BABFC5CAD0D5DBE1E7ED17
:1000B200F3F9FF00060C12181E242A2F353A404588
:1000C2004A4F53585C6064676B6E70737577797AC8
:1000D2007B7C7C7C7C7C7B7A79777573716E6B67B9
:1000E20064605C58534F4A45403A352F2A241E1803
:1000F200120C0600F9F3EDE7E1DBD5D0CAC5BFBAB1
:10010200B5B0ACA7A39F9B9894918F8C8A88868563
:10011200848383838383848586888A8C8E91949852
:100122009B9FA3A7ACB0B5BABFC5CAD0D5DBE1E7E8
:10013200EDF3F9FF7C002A00550001008801360129
:1001420001009D01380101009E013A010000F8946E
:10015200EE27EFBBE5BF8DE0A2E0BB27ED938A95CA
:10016200E9F780E092E0A0E0B1E0ED930197E9F7D2
:10017200ECE3F1E085919591009761F0A591B5913D
:1001820005901590BF01F00105900D920197E1F7DE
:10019200FB01F0CFE0E0EEBBEFEFEDBFE2E0EEBF40
:1001A200C0E8D1E00BC0419B02C0419801C0419A16
:1001B200419B02C0419801C0419A1895E0E8E09342
:1001C2006100E0E0E0936100EFE0E4B9E0E0E5B96E
:1001D200E6E0E7B9E0E0E8B9E8E6EAB9E0E0EBB981
:1001E200E1EBE4BDE1E0E5BDE0E0E6BDE7BDEFEF58
:1001F200E8BDE1EBE0938000E1E0E0938100E0E024
:10020200E0938500E0938400E0938700E09386000A
:10021200E0938900E0938800E0938B00EFEFE09396
:100222008A00E0E0E093B600E1EBE093B000E1E0A9
:10023200E093B100E0E0E093B200E093B300EFEFAF
:10024200E093B400E1E0E0936E00E0E0E0936F0041
:10025200E0937000E0936900EDBBE0936800E093E7
:10026200C100E0E8E0BFE0E0E0937F00E0937E00C1
:10027200E0E4E0937C00E3E8E0937A00E0E0E093DE
:100282007B00ECBDE093BC00E6BDE2E0E0938400BD
:10029200E5E0E093B2007894E1E0F0E0E0938001E1
:1002A200F0938101E0938801F0938901FFCFFFCFA2
:00000001FF
