:08000000F9C324C4FDCFFCCFBD
:10000800FBCFFACFF9CFF8CFF7CFF6CFF5CFF4CFB4
:10001800F3CFF2CFF1CFF0CF29C4EECFEDCFECCFB5
:10002800EBCFEACFE9CFE8CFE7CFE6CF00001A075A
:100038008D035E02C6016B012F010301E300CA00B4
:10004800B500A50097008B008100790071006A0057
:1000580065005F005A00560052004F004B004800F0
:100068004500430040003E003C003A00380037009D
:1000780035003300320031002F002E002D002C00F7
:100088002B002A002900280027002600250025002B
:1000980024002300220022002100210020001F004C
:1000A8001F001E001E000002060A0D101416191B60
:1000B8001E1F212324242424242423211F1E1B192A
:1000C8001614100D0A0602000003070B0D11151770
:1000D8001B1E2021242526262626262625242120E7
:1000E8001E1B1715110D0B0703000003070B0F123A
:1000F80015191B1E202325262828282828282625C8
:1001080023201E1B1915120F0B0703000003070BF2
:100118001014161A1E20232526292A2A2A2A2A2AB2
:1001280029262523201E1A1614100B070300000386
:10013800070C1014171B1E212426282A2A2B2B2BC8
:100148002B2A2A282624211E1B1714100C0703000B
:100158000003080C1115191C202325282A2B2D2EE5
:100168002E2E2E2D2B2A282523201C1915110C087C
:1001780003000003080C11151A1E202426292B2D14
:100188002E2F2F2F2F2E2D2B292624201E1A151106
:100198000C0803000003080D12161B1F2325292B2A
:1001A8002E2F3032323232302F2E2B2925231F1B8F
:1001B80016120D0803000003080D12171B1F232633
:1001C8002A2D2F30323333333332302F2D2A262342
:1001D8001F1B17120D08030000050A0F12171C2019
:1001E80024282B2E303233343434343332302E2B0F
:1001F8002824201C17120F0A050000050A0F1419DD
:100208001E21262A2D2F32343537373737353432E9
:100218002F2D2A26211E19140F0A050000050A0F82
:10022800151A1E23262A2E303335373838383837F2
:100238003533302E2A26231E1A150F0A050000050D
:100248000B10151A1F24292D30333538393A3A3A0C
:100258003A39383533302D29241F1A15100B05006B
:1002680000050B10161B2025292E303437393A3C4F
:100278003C3C3C3A393734302E2925201B16100BCC
:10028800050000050B11161C21262B2F3337393C8E
:100298003D3E3E3E3E3D3C3937332F2B26211C1632
:1002A800110B050000050B11171C23282B303438BF
:1002B8003A3D3E3F3F3F3F3E3D3A3834302B2823BE
:1002C8001C17110B050000060C12191E24292E32CA
:1002D80035393D3F4142424242413F3D3935322E58
:1002E80029241E19120C060000060C12191F2429B5
:1002F8002E33373A3E3F4243434343423F3E3A3729
:10030800332E2A241F19120C060000060C12191F7E
:10031800252A2F34383C3E41434444444443413E1B
:100328003C38342F2A251F19120C060000060C141D
:100338001A20262B32353A3E41434647474747461F
:1003480043413E3A35322B26201A140C060000068B
:100358000D141A21262D32373C3F4244474848485D
:10036800484744423F3C37322D26211A140D0600D7
:1003780000060D151B21282E34393D414447494BB1
:100388004B4B4B494744413D39342E28211B150D11
:10039800060000060D151C23292F34393E42464815
:1003A8004B4C4C4C4C4B4846423E39342F29231C6D
:1003B800150D060000070F161C242A30373C41444F
:1003C800484B4D4E4E4E4E4D4B4844413C37302ADB
:1003D800241C160F070000070F161E242B32373D6A
:1003E8004146494C4E505050504E4C4946413D377D
:1003F800322B241E160F070000070F161E252D335B
:10040800393E43484B4E5152525252514E4B48433B
:100418003E39332D251E160F070000070F171F261C
:100428002D34393F44484C50525353535352504C37
:1004380048443F39342D261F170F070000071017AF
:100448001F262E343A4146494D515355555555535B
:10045800514D4946413A342E261F17100700000710
:10046800101920282F353C42474C505355575757A1
:10047800575553504C47423C352F28201910070038
:100488000007101920282F373D43484D515556581D
:100498005858585655514D48433D372F2820191064
:1004A800070000081119212932383F444B50535690
:1004B800585B5B5B5B585653504B443F383229219D
:1004C800191108000008111A212A32393F464C50E8
:1004D80055575A5C5C5C5C5A5755504C463F39320C
:1004E8002A211A1108000008111A232A3339414712
:1004F8004C5156585B5D5D5D5D5B5856514C4741AC
:1005080039332A231A1108000008111A232B343C06
:1005180042484E53575B5D606060605D5B57534E69
:1005280048423C342B231A1108000008111B242DC3
:10053800343C43495055585C5F616161615F5C5868
:10054800555049433C342D241B1108000008121B48
:10055800252E353E444C51575B5F61646464646189
:100568005F5B57514C443E352E251B12080000088E
:10057800121C252E373E464C52585C6062656565F4
:100588006562605C58524C463E372E251C120800A6
:100598000008121C262F383F474E555A5F62656780
:1005A80067676765625F5A554E473F382F261C12AA
:1005B8000800000A141C262F38414850565B606416
:1005C80066696969696664605B56504841382F26D8
:1005D8001C140A00000A141E263039424950575C80
:1005E8006165676A6A6A6A6765615C57504942393A
:1005F80030261E140A00000A141E28323A434B52B1
:10060800585F64676A6C6C6C6C6A67645F58524BBD
:10061800433A32281E140A00000A141F29323C44A7
:100628004C535A6064696B6E6E6E6E6B6964605A87
:10063800534C443C32291F140A00000A151F293361
:100648003D464D555C61666A6E707070706E6A6684
:10065800615C554D463D33291F150A00000A151FD8
:100668002A343D464E565C62676B6F717171716FCB
:100678006B67625C564E463D342A1F150A00000A15
:1006880015202A343E4750575D64696C7073737344
:1006980073706C69645D5750473E342A20150A0010
:1006A800000B15202B353F48515860666B6F7375EA
:1006B800757575736F6B66605851483F352B2015FB
:1006C8000B00000B16212B353F49525A61676C709D
:1006D800747676767674706C67615A52493F352B1A
:1006E80021160B00000B16212D37414B535C626914
:1006F8006F73767979797976736F69625C534B4158
:10070800372D21160B00000B16212D38424C555C55
:10071800646A707478797A7A797874706A645C55E6
:100728004C42382D21160B00000B16232E38434C53
:10073800565D656B7075797A7B7B7A7975706B65B8
:100748005D564C43382E23160B0000FF00FF00FFB8
:100758000000000000000000000000000000000091
:100768000000000000000000000000000000000081
:100778000000000000000000000000000000000071
:100788000000000000000000000000000000000061
:100798000000000000000000000000000000000051
:1007A8000000000000000000000000000000000041
:1007B8000000000000000000000000000000000031
:1007C8000000000000000000000000000000000021
:1007D800000000000000000000002C1600000000CF
:1007E800000000000800030052070000F894EE27FC
:1007F800EFBBE5BF8DE0A2E0BB27ED938A95E9F753
:1008080080E092E0A0E0B1E0ED930197E9F7ECEE2B
:10081800F7E085919591009761F0A591B5910590C4
:100828001590BF01F00105900D920197E1F7FB01CA
:10083800F0CFE0E0EEBBEFEFEDBFE2E0EEBFC0E0EF
:10084800D2E024C0AA93BA93EA93FA93EFB7EA9353
:10085800A0E0B2E0ED91FD913196FE93EE93E9911F
:10086800EFBFF991E991B991A9911895EA93EFB77A
:1008780037BC48BC5092880060928A007092B300DE
:100888008092B400A394EFBFE9911895EF97EF9782
:10089800649782E9A0E0B0E0EAE5F7E042D2FF24FD
:1008A80010E000E030E020E050E040E0E0E8E093D5
:1008B8006100E0E0E0936100EEE0E4B9E0E0E5B972
:1008C800E6E0E7B9E0E0E8B9E8E6EAB9E0E0EBB984
:1008D800E1EBE4BDE1E0E5BDE0E0E6BDE7BDE8BD94
:1008E800E1EBE0938000E1E0E0938100E0E0E09359
:1008F8008500E0938400E0938700E0938600E0930E
:100908008900E0938800E0938B00E0938A00E093ED
:10091800B600E1EBE093B000E1E0E093B100E0E085
:10092800E093B200E093B300E093B400E1E0E09319
:100938006E00E0E0E0936F00E0937000E2E0E09387
:100948006900E1E0EDBBECBBE0E0E0936800E09318
:10095800C100E0E8E0BFE0E0E0937F00E0937E00C4
:10096800E0E4E0937C00E3E8E0937A00E0E0E093E1
:100978007B00ECBDE093BC00DE01AF56BF4FEC93AB
:1009880045D1A23498F542D1A13220F444D149D1BD
:100998004BD103C053D145D157D1EC9160D162D12D
:1009A800A33050F464D169D1E0E0EC9360D16BD10D
:1009B8006DD158D1A08315C055D1AD3F40F057D166
:1009C8005CD1EBEFEC9353D164D1EFEF09C04FD179
:1009D80054D163D1E250EC934AD15BD15ED1EE5F42
:1009E800EC93DE01AF56BF4F5DD1CACF5DD162D166
:1009F800E6E3F0E065D1E1E06AD1ECE3EA837894DC
:100A0800E3E0DE01A057BF4FEC93FE01E557FF4F2F
:100A18000190F081E02DA0910002B0910102EA1747
:100A2800FB070CF0AEC0E0E0E0930002E0930102A7
:100A380053D108F45BC0DE01A657BF4F33D1DE01A6
:100A4800A757BF4F2FD1DE01A857BF4F2BD14AD18F
:100A5800A23429F4E0E0DE01A657BF4FEC93DE0193
:100A6800A757BF4FAC91A23429F4E0E0DE01A757A5
:100A7800BF4FEC93DE01A857BF4FAC91A23429F4C5
:100A8800E0E0DE01A857BF4FEC9331D1F6D03C909F
:100A98002ED1FFD04C90F0FC0CC02FD1EED05C9042
:100AA8002CD1F7D06C902FD1F0E0E7D07C902BD1EF
:100AB8000FC029D1F0E0E1D05C9025D1F0E0E9D079
:100AC8006C901BD1DAD07C90FE01E857FF4FE08193
:100AD800F0E0DFD08C90419B02C0419801C0419A60
:100AE800419B02C0419801C0419A07C0EFEF4E2ECA
:100AF80033246E2E55248E2E7724A981A33408F032
:100B08003FC0EB81E150E883A881A23310F0E1E314
:100B1800E883E981EF5FE983E5D0A13240F4F8D0BA
:100B2800DF0179D0B3D080D0BDD0BED007C0F0D01F
:100B3800DF0184D0ABD088D0B5D0BCD093D0A3305F
:100B480050F4D5D09AD0E0E0EC93D1D09CD09ED090
:100B580089D0A08315C086D0AD3F40F0C8D08DD0D5
:100B6800EBEFEC93C4D095D0EFEF09C0C0D085D09F
:100B780094D0E250EC93BBD08CD08FD0EE5FEC9346
:100B880043C0EAE8EA1508F03FC0AA24A5D008F156
:100B9800EA81AB81AE1710F0EA17D0F4185D14366D
:100BA800B8F010E0EA81AB81AE1718F4EB81EF5F83
:100BB80002C0EB81E150EB83A4E3B0E0F0E0EE0F7C
:100BC800FF1F64D07DD0AB81A33310F4E0E0E9834C
:100BD80006C0513020F03F5F231708F430E04F5F24
:100BE800423391F440E0DE01A357BF4FAC91A230ED
:100BF80059F4E1E0EA83AB81A13009F40F5F0330D7
:100C080018F000E0E0E063D0FBCEFFCFDE01AF5686
:100C1800BF4FAC910895FE01E157FF4FE081F0E02E
:100C28000895E255FF4F0895E491E158DE01A05779
:100C3800BF4FEC93DE01A157BF4F0895FE01E25765
:100C4800FF4FE081F0E00895A491EFE7EA1BDE0191
:100C5800A057BF4FEC93DE01A257BF4F0895EF5F37
:100C6800EC930895DE01A057BF4FAC910895FE01A3
:100C7800EF56FF4FE081F0E00895DE01AA5BBF4F19
:100C8800AE0FBF1F0895DE0114960895EA0FFB1FEB
:100C98000895F9DFAE0FBF1F0895FE01E057FF4F1B
:100CA800E0810895EC91DBCFE0E0DE01A257BF4F71
:100CB800EC930895E0E0DE01A157BF4FEC9308954F
:100CC8002CD0DE01A557BF4FED93FC930895DE01AC
:100CD800A357BF4FEC930895DE01A357BF4FAC91C4
:100CE800A1300895DE01A657BF4FAC910895FE01CB
:100CF800E657FF4FE081F0E00895FE01E857FF4F07
:100D0800E081F0E00895FE01E757FF4FE081089584
:100D1800E881A2E2EA9FF00184CF0590F491E02DEA
:100D28000895AC0FBD1F05900D928A95E1F70895BF
:00000001FF
