:1000000049C0FECFFDCFFCCFFBCFFACFF9CFF8CF61
:10001000F7CF6CC0F5CFF4CFF3CFF2CFF1CFF0CF65
:10002000EFCFEECFEDCFECCFEBCFEACFE9CFE8CFFC
:10003000E7CFE6CF000B17232E39434D565E656C94
:100040007176797B7C7C7B7976716C655E564D43ED
:10005000392E23170B00F4E8DCD1C6BCB2A9A19A53
:10006000938E89868483838486898E939AA1A9B28C
:10007000BCC6D1DCE8F4FF00000000000000000076
:10008000000055000000009A99993E00020003000C
:1000900078000000F894EE27EFBBE5BF8DE0A2E00A
:1000A000BB27ED938A95E9F780E092E0A0E0B1E00C
:1000B000ED930197E9F7ECE8F0E0859195910097D1
:1000C00061F0A591B59105901590BF01F0010590E3
:1000D0000D920197E1F7FB01F0CFE0E0EEBBEFEF0F
:1000E000EDBFE2E0EEBFC0E7D2E023C0EA93EFB796
:1000F00043943394EFBFE9911895AA93E881E064A3
:10010000E0937C008BE18A95F1F7E0917A00E0645E
:10011000E0937A00E0917A00E071E1F3E0917A00F7
:10012000E061E0937A00E0917800F0917900219607
:100130000895EF97EF97A39781E1A0E0B0E0EAE799
:10014000F0E0B7D3FF2434E020E050E04AE2E0E8FA
:10015000E0936100E0E0E093610072D1EEE0E4B989
:10016000E0E0E5B9E6E0E7B9E0E0E8B9E8E6EAB9F9
:10017000E0E0EBB9E1EBE4BDE1E0E5BDE1EBE0930C
:100180008000E1E0E0938100E0E0E0938700E0930D
:100190008600E093B600E1EBE093B000E1E0E0938D
:1001A000B100E0E0E0936E00E0936F00E1E0E093E7
:1001B0007000E0E0E0936900EDBBE0936800E0933D
:1001C000C100E0E8E0BFE0E0E0937F00E0937E0064
:1001D000E0E4E0937C00E3E8E0937A00E0E0E09381
:1001E0007B00ECBDE093BC00EAE9F9E969E97EE354
:1001F00038D110E0123418F539D13BD150F436D152
:100200004ED1E0E0EC9332D150D1EA0FFB1F0083D6
:1002100014C00D3F40F02AD142D1EBEFEC9326D130
:1002200047D1EFEF09C022D13AD1E02FE250EC9351
:100230001DD13ED1E02FEE5FEC931F5FDBCFE0E0FE
:10024000E6BDE2E0E0938400E5E0E093B20078945C
:10025000431608F475C04424213010F0F0FE01C0AC
:100260006EC05F5F4F5FE885EF5FE887523409F447
:1002700050E0423409F440E0A885A23411F4E0E0F3
:10028000E8871AD10CD1EC91E7BD16D111D1EC91D0
:10029000E8BDF1FC12C0E88512D1EC91E093880032
:1002A000E885F0E005D1EC91E0938A00E42F07D1D6
:1002B000EC91E093B300E42F11C0E42F00D1EC9156
:1002C000E0938800E42FF0E0F3D0EC91E0938A0013
:1002D000E885F5D0EC91E093B300E885F0E0E8D054
:1002E000EC91E093B400419B02C0419801C0419A57
:1002F000419B02C0419801C0419ADED0BAD050F46F
:10030000DBD0CDD0E0E0EC93D7D0CFD0EA0FFB1F0D
:10031000008314C00D3F40F0CFD0C1D0EBEFEC9381
:10032000CBD0C6D0EFEF09C0C7D0B9D0E02FE25094
:10033000EC93C2D0BDD0E02FEE5FEC9301C080D033
:10034000EAE8E31508F07AC033242130D0F1EE81D9
:10035000AF81AE1710F0EA1798F5ED81E85DED83F7
:10036000AD81A43668F1E0E0ED83EE81AF81AE1798
:1003700018F4EF81EF5F02C0EF81E150EF83F0E00E
:10038000A0EFB0E071D23E2FEF81F0E050D20DD15E
:10039000A3E3B3E383EB9FE38BD1A0E0B0E080EF76
:1003A00091E436D18ED092D016D209F008F405C06F
:1003B000E0E0F0E068EC72E484D088D0C7D151D09E
:1003C00017C0A981A13050F0EB81EF5FEB83EA8188
:1003D000AB81EA1710F4E0E0EB830AC0309903C068
:1003E00021E06894F1F8499903C021E0E894F1F81C
:1003F000489903C0203009F022E0E881EF5FE883EC
:10040000A881A233D9F4E0E0E883223079F4E1E076
:10041000EE83AF81A13019F4EC81EF5FEC83AC8106
:10042000A33018F0E0E0EC8320E008C0A7E065DE30
:10043000DF01E1E1F0E005D2EF5FEE8309CFFFCF0E
:10044000E0E0E7BDEFEFE8BDE0E0E0938800EFEF2C
:10045000E0938A00E0E0E093B300EFEFE093B400B4
:100460000895ED87FE876F87788B0895E12FF0E080
:100470000895EC5CFF4FA491B0E0A7FDBFEFED85C0
:10048000FE856F857889D8D104D212D1A0E0B0E082
:100490008EEF92E4BDD050D00E2F03300895DE01D0
:1004A000A75ABF4FAE0FBF1F0895DE0151960895A2
:1004B000FCDFAE0FBF1F0895E52FF0E00895F0E0D8
:1004C000EECFE987FA876B877C870895A985BA857F
:1004D0008B859C85E0E0F0E068EC72E4089555239C
:1004E00042F4503811F4E0FF04C03196691F791FBF
:1004F0006BF050E8572711F45F93C8C05F3F31F0AD
:10050000660F000C57956795752F08955F9300202F
:100510000AF0C8C0C1C050E8192E1522880F991FD3
:100520009527550F879550E8072E0522660F771FF0
:100530007527550F67950895689401C0E8945F93F7
:10054000F2DF703818F07F3F08F4A0C056E1571B67
:10055000AAF4519558300EF4593030F0EFEFFFEF18
:100560006FEF7FE777F91AC077275523B9F0EE0FC1
:10057000FF1F661F771F5A95D1F710C07727583095
:1005800028F0EF2FF62F672F5850F9CF552331F071
:1005900076956795F795E7955A95D1F700200AF477
:1005A0003ED15F910895689401C0E894309760400F
:1005B0007040B1F0002426F0772312F400942FD17C
:1005C000172E7EE1112032F07A95EE0FFF1F661F85
:1005D000111CF9CFEF2FF62F612D5F938ADF5F910A
:1005E00008954F93AF01FD01DA01AB01BC01CA01CF
:1005F000402D012C142E4F910895EA0FFB1F681F08
:100600000895E095F0956095EF5FFF4F6F4F089567
:100610005F9381DF903839F1703821F1572F591BE2
:100620002BF112F4DEDFFACF583118F0AA27BB27DE
:100630008827583028F0AB2FB82F88275850F9CF8B
:10064000552329F08695B795A7955A95D9F7502D3A
:10065000512572F0D2DF38F46795F795E7957395D9
:1006600013F420C0BEDF45DF5F910895D8F7FBCFBC
:10067000EA1BFB0B680B51F010F40094C2DF6623F9
:1006800092F3EE0FFF1F661F7A95CBF7EE27FF2739
:10069000662777275F910895EFEFFFEF6FE77FEF12
:1006A0005F910895EFEFFFEF6FE77FE75F910895A8
:1006B0005F9331DF703851F3903841F3012408948F
:1006C000791F23F41CF300203AF3ECCF0F921F9311
:1006D0002F933F934F93112722279927689FA001BB
:1006E0008F9F302D410D591F6B9F300D411D591F9C
:1006F0008E9F27D0BF9F25D06A9F23D0BE9F1DD03D
:10070000AF9F1BD0AE9F110D291F391F491F591FC5
:10071000E32FF42F652F522F4F913F912F911F916F
:100720000F9066232AF0550FEE1FFF1F661F02C0B1
:1007300073954BF2D4DE5F910895100D211D391F82
:1007400002C0200D311D491F591F08955F93E3DE3C
:10075000703821F411200AF49FCFA4CF903809F407
:1007600095CF01240894970B1BF4D4F30020F3CF0A
:10077000792F1F932F933F934F93112411272227F3
:1007800033274427552790E2AE17BF078607410756
:1007900030F0AE1BBF0B860B410B089401C0889450
:1007A000551F221F331F111CAA1FBB1F881F441F68
:1007B0009A9551F7F901612D4F913F912F911F911A
:1007C000662332F0550FEE1FFF1F661F7A9543F226
:1007D00086DE5F91089599239AF0772342F0971768
:1007E00048F029F4AE17BF07860720F031F098943F
:1007F0008894089598940894089518948894089576
:100800007723C2F7971798F3A9F7EA17FB0768074A
:1008100088F399F3ECCFF195E195F0400895F095C8
:1008200060957095E195FF4F6F4F7F4F08956F2F43
:10083000660F660B762F08958B2F880F880B982FE5
:1008400008950024112490E1AA0FBB1F001C111C65
:100850000E1A1F0A18F40E0E1F1E01C0A1609A95F1
:1008600099F7FD01D001089504D0EBDF0EF4D3DF3A
:100870000895E894F7FF02C0CEDF6894B7FF06C082
:10088000A095B095119600F8039400FA0895689425
:1008900001C0E89401D08ADE182E862F612D192E12
:1008A000972F712D1B2EBF2FF12D1A2EAE2FE12D5C
:1008B0000895AC0FBD1F05900D928A95E1F708953C
:00000001FF
