:0200000009C035
:10000200FECFFDCF18C0FBCFFACFF9CFF8CFF7CF95
:10001200F6CFF894EE27ECBBE5BF8DE0A2E0ED93BE
:100022008A95E9F780E4A0E6ED938A95E9F7EFE98E
:10003200EDBFC0E705C0EA93E0ECE2BFE991189595
:10004200E0E8E6BDE0E0E6BDE1E0E7BBE0E0E8BB1A
:10005200E3E8EFBDE1E0E3BFE0ECE2BFE0EEE6BFE4
:10006200E0E0E9BDE2E0E9BFE0E0EBBFE5BFE0E8E8
:10007200E8B9E0E0E3B9E4BBE6B97894FFCFFFCF9B
:00000001FF
