:08000000B1C0FECFFDCFFCCF23
:10000800FBCFFACFF9CFF8CFF7CFF6CFF5CFF4CFB4
:10001800F3CFF2CFF1CFF0CFCDC0EECFEDCFECCF15
:10002800EBCFEACFE9CFE8CFE7CFE6CF00060C1257
:10003800181E242A2F353A40454A4F53585C6064AD
:10004800676B6E70737577797A7B7C7C7C7C7C7B44
:100058007A79777573716E6B6764605C58534F4A31
:1000680045403A352F2A241E18120C0600F9F3EDE4
:10007800E7E1DBD5D0CAC5BFBAB5B0ACA7A39F9B93
:100088009894918F8C8A88868584838383838384DC
:100098008586888A8C8E9194989B9FA3A7ACB0B5CF
:1000A800BABFC5CAD0D5DBE1E7EDF3F9FF00060C0E
:1000B80012181E242A2F353A40454A4F53585C607F
:1000C80064676B6E70737577797A7B7C7C7C7C7CDB
:1000D8007B7A79777573716E6B6764605C58534F80
:1000E8004A45403A352F2A241E18120C0600F9F307
:1000F800EDE7E1DBD5D0CAC5BFBAB5B0ACA7A39FC1
:100108009B9894918F8C8A88868584838383838344
:10011800848586888A8C8E9194989B9FA3A7ACB07F
:10012800B5BABFC5CAD0D5DBE1E7EDF3F9FF0000EA
:1001380000007C000000000000009A99993E2A0007
:1001480055000C00030036010400A801420101001B
:10015800AF0146010100B00148010000F894EE2704
:10016800EFBBE5BF8DE0A2E0BB27ED938A95E9F7E9
:1001780080E092E0A0E0B1E0ED930197E9F7EAE4CE
:10018800F1E085919591009761F0A591B591059061
:100198001590BF01F00105900D920197E1F7FB0161
:1001A800F0CFE0E0EEBBEFEFEDBFE2E0EEBFC8EA74
:1001B800D1E0B4C0EA93FA93EFB7EA93E1E0F0E054
:1001C8009E0EAF1EE991EFBFF991E9911895E09164
:1001D800AE01EF5FE093AE013ED1EF5FE093AF0178
:1001E8003DD1EF5FE093B001A091AE01A03819F4C2
:1001F800E0E0E093AE01A091AF01A03819F4E0E08F
:10020800E093AF01A091B001A03819F4E0E0E093C9
:10021800B001E091AE0125D1E7BDE091AE0126D154
:10022800E8BD052C062859F419D11BD124D116D1C3
:100238001DD124D110D115D124D10DD10AC00BD193
:1002480010D119D108D112D119D108D10AD119D197
:1002580005D1F0E0E154FE4FE081E093B400419B0A
:1002680002C0419801C0419A419B02C0419801C017
:10027800419A0895AA9308D1EC5CFF4FA491B0E08D
:10028800A7FDBFEFE091A801F091A9016091AA0133
:100298007091AB0146D24CD2EED1A0E0B0E08EEF27
:1002A80092E499D1ADECB1E02AD1EC93A091CD01C3
:1002B800A33060F4E9D0EF54FE4FA0E0A083E4D06F
:1002C800E154FE4FA091CD01A0831FC0A091CD01A4
:1002D800AD3F58F0D9D0EF54FE4FABEFA083D4D048
:1002E800E154FE4FAFEFA08310C0A881B0E0AF5437
:1002F800BE4FE091CD01E250EC93A881B0E0A1544B
:10030800BE4FE091CD01EE5FEC9321960895BFD0EA
:10031800E0E0B1D0EFEFB2D0BFD00895E0E8E093CD
:100328006100E0E0E0936100EFE0E4B9E0E0E5B906
:10033800E6E0E7B9E0E0E8B9E8E6EAB9E0E0EBB919
:10034800E1EBE4BDE1E0E5BDE0E0E6BDA0D0E1EB36
:10035800E0938000E1E0E0938100E0E0E093850035
:10036800E0938400E0938700E0938600E09389009F
:1003780082D0E0E0E0938B00EFEF80D0E0E0E09304
:10038800B600E1EBE093B000E1E0E093B100E0E01B
:10039800E093B20081D0E1E0E0936E00E0E0E0930A
:1003A8006F00E0937000E0936900EDBBE093680094
:1003B800E093C100E0E8E0BFE0E0E0937F00E09375
:1003C8007E00E0E4E0937C00E3E8E0937A00E0E07C
:1003D800E0937B00ECBDE093BC00E6BDE2E0E09377
:1003E8008400E5E0E093B200EAE9F9E969E97EE32F
:1003F800E093A801F093A9016093AA017093AB015F
:1004080010E01A3020F4A12F35DF1F5FFACFE2E0A9
:10041800F0E07E2E8F2EE1E0F0E03E2E4F2E789415
:10042800092C0A2819F4A091AE0124DF9714A80416
:1004380084F09924AA2400240314040434F4A09119
:10044800AC01B091AD01109709F002C0C0DE01C047
:100458005EDFE6CFFFCFE091AF010895E091B001F4
:100468000895F0E0EF54FE4FE0810895F0E0E15484
:10047800FE4FE0810895E09388000895E0938A0094
:100488000895E093B3000895E881F0E00895E0E06E
:10049800E7BDEFEFE8BD0895E0E0F3DFEFEFE093AD
:1004A800B4000895552342F4503811F4E0FF04C015
:1004B8003196691F791F6BF050E8572711F45F9345
:1004C800C8C05F3F31F0660F000C57956795752FD0
:1004D80008955F9300200AF0C8C0C1C050E8192EE3
:1004E8001522880F991F9527550F879550E8072ED5
:1004F8000522660F771F7527550F6795089568942D
:1005080001C0E8945F93F2DF703818F07F3F08F479
:10051800A0C056E1571BAAF4519558300EF4593033
:1005280030F0EFEFFFEF6FEF7FE777F91AC077272B
:100538005523B9F0EE0FFF1F661F771F5A95D1F7A5
:1005480010C07727583028F0EF2FF62F672F585014
:10055800F9CF552331F076956795F795E7955A9534
:10056800D1F700200AF4D5D05F910895689401C0AE
:10057800E894309760407040B1F0002426F077236B
:1005880012F40094C6D0172E7EE1112032F07A952D
:10059800EE0FFF1F661F111CF9CFEF2FF62F612DED
:1005A8005F938ADF5F9108954F93AF01FD01DA01F0
:1005B800AB01BC01CA01402D012C142E4F910895A6
:1005C800EA0FFB1F681F0895E095F0956095EF5FAF
:1005D800FF4F6F4F08955F9381DF903839F170387E
:1005E80021F1572F591B2BF112F4DEDFFACF5831C6
:1005F80018F0AA27BB278827583028F0AB2FB82F28
:1006080088275850F9CF552329F08695B795A7958F
:100618005A95D9F7502D512572F0D2DF38F46795E5
:10062800F795E795739513F420C0BEDF45DF5F911A
:100638000895D8F7FBCFEA1BFB0B680B51F010F4B9
:100648000094C2DF662392F3EE0FFF1F661F7A95B0
:10065800CBF7EE27FF27662777275F910895EFEFFF
:10066800FFEF6FE77FEF5F910895EFEFFFEF6FE721
:100678007FE75F9108955F9331DF703851F39038C9
:1006880041F301240894791F23F41CF300203AF362
:10069800ECCF0F921F932F933F934F93112722274D
:1006A8009927689FA0018F9F302D410D591F6B9F7F
:1006B800300D411D591F8E9F27D0BF9F25D06A9F9F
:1006C80023D0BE9F1DD0AF9F1BD0AE9F110D291FF9
:1006D800391F491F591FE32FF42F652F522F4F91B0
:1006E8003F912F911F910F9066232AF0550FEE1F0F
:1006F800FF1F661F02C073954BF2D4DE5F91089509
:10070800100D211D391F02C0200D311D491F591F11
:100718000895F09560957095E195FF4F6F4F7F4F65
:1007280008958B2F880F880B982F0895689401C01F
:10073800E89401D01EDF182E862F612D192E972FD1
:10074800712D1B2EBF2FF12D1A2EAE2FE12D0895DE
:00000001FF
